:020000040000FA
:040000000128F12FB3
:100E480016302100970008007C08F1007B08F000AC
:100E580008007C08F5007B08F40008007C08F30013
:100E68007B08F200080087316F2787313A2F012865
:100E7800640080010131890B3D2F0034320091015B
:100E880092019301940195019601080060303200A7
:100E980099009B019D0106309F009E0108000034C7
:100EA800003400340034003400340034003400349A
:100EB8000034A23407342400951A632F642F6E2F50
:100EC8009401283095009601273092006E2F6E2FDE
:100ED8006E2F6E2F08008731422787318731C3274D
:100EE800873187314A2787318731242787318731EE
:100EF800A227873187315F27873108000034003403
:100F08000034003400340034003400340034003439
:100F18000034003400340034003400340034003429
:100F28000034003400340034003400340034003419
:100F38000034003400340034003400340830230016
:100F48009F0090309D0024309E0022309B009C0121
:100F58000030FB000030FC0087312D27873100303E
:100F6800FB000030FC008731322787310030FB005E
:100F78000030FC00873128278731FA010800220059
:100F88008C0112308E00373021008C000C308E001E
:100F9800243023008E0007308C0024008C018E0141
:100FA80025008C018E01373026008C003F308E00E2
:100FB8003F3027008C003F308E0013303C00A400E7
:100FC8000530A00019303D00940018309500143009
:100FD800A50004303C00A1000800F601F701F80163
:100FE800F901FA0120308400003085001D30873176
:080FF8003C2787312000372F50
:020000040001F9
:08000E00ECFFF3FFFFDFFFFF31
:00000001FF
