:020000040000FA
:08000000803102288731E72F4F
:10000E00003020003A05C20000303B05C3008030AE
:10001E003C05C4007F303D05C5004508440443043B
:10002E004204031D1B281C2824280030BD0000306C
:10003E00BC000030BB000030BA0000303E05C200EC
:10004E0000303F05C30080304005C4007F304105BD
:10005E00C5004508440443044204031D37283828CC
:10006E0041280030C1000030C0000030BF00003019
:10007E00BE004128BD1F442845286D280030C2000F
:10008E000030C3000030C4008030C5003A09C600FD
:10009E003B09C7003C09C8003D09C900C60A03193F
:1000AE00C70A0319C80A0319C90A4608C20747082E
:1000BE00C33D4808C43D4908C53D4508BD00440838
:1000CE00BC004308BB004208BA006D28C11F70284F
:1000DE00712899280030C2000030C3000030C400DF
:1000EE008030C5003E09C6003F09C7004009C80060
:1000FE004109C900C60A0319C70A0319C80A031918
:10010E00C90A4608C2074708C33D4808C43D490806
:10011E00C53D4508C1004408C0004308BF00420861
:10012E00BE0099288030BD068030C10641083D02D0
:10013E00031DAB2840083C02031DAB283F083B02C1
:10014E00031DAB283E083A020318AE28AF28B1288B
:10015E000310B4280314B428B42808002100BE00EC
:10016E00BA01BB0120004D082100D00020004C0830
:10017E002100CF0020004B082100CE0020004A08AD
:10018E002100CD0050082000BD0021004F082000A6
:10019E00BC0021004E082000BB0021004D082000AD
:1001AE00BA000030C1000030C0000030BF00003087
:1001BE00BE008031072080310318E628E728012988
:1001CE0001302100BA000030BB005008F3004F0888
:1001DE00F2004E08F1004D08F0009C316F24803182
:1001EE0073082100D0007208CF007108CE0070088D
:1001FE00CD0001292100D301D4012200480821009D
:10020E00C100220047082100C0003A083B04031D2C
:10021E001129122917296D1D152916293D2917296E
:10022E003A083B04031D1C291D2922292B30A4004A
:10023E000030A50027292D30A4000030A500272965
:10024E0024082000CF0021005308A03E8600013074
:10025E00870020004F08810001302100D3070030B5
:10026E00D43DFF30C007FF30C13D3D295008F3009B
:10027E004F08F2004E08F1004D08F0009131C721F1
:10028E00803170037104031D4D294E29B5292000BC
:10029E004E08BF3ECF00FF3003180030D0000030B4
:1002AE0050021A3003194F02031C5E2960290130D7
:1002BE0061290030D100D20151082100A600200092
:1002CE0052082100A7007C2920004E08CF00D00143
:1002DE004F08F0005008F1009C31DF248031710886
:1002EE002100A7007008A6007C2926082704031900
:1002FE00812982298C295B30F000A030F10053084F
:10030E00A03E9D319F25803197296330F000A030AB
:10031E00F10021005308A03E9D319F258031972981
:10032E00FD302100C007FF30C13DA0302000CF00BE
:10033E004F08A700210041082000A9002100400815
:10034E002000A80021003E0890313E208031200080
:10035E002808CB002708CA00E62FE62F21005008F8
:10036E00F3004F08F2004E08F1004D08F0009131F5
:10037E00C721803170087104031DC629C7292E2A92
:10038E0020004E08BF3ECF00FF3003180030D000D3
:10039E00003050021A3003194F02031CD729D929F5
:1003AE000130DA290030D100D20151082100A80015
:1003BE00200052082100A900F52920004E08CF0088
:1003CE00D0014F08F0005008F1009C31DF2480313D
:1003DE0071082100A9007008A800F5292808290431
:1003EE000319FA29FB29052A5F30F000A030F1002D
:1003FE005308A03E9D319F258031102A6730F000B2
:10040E00A030F10021005308A03E9D319F25803180
:10041E00102AFD302100C007FF30C13DA030200062
:10042E00CF004F08A700210041082000A90021009D
:10043E0040082000A80021003E0890313E20803167
:10044E0020002808CB002708CA00E62FE62F3F30F1
:10045E002100D8008030D7000030D6000030D50003
:10046E00D101D2015008F3004F08F2004E08F100FE
:10047E004D08F0000030F7000030F6000030F500B7
:10048E000030F4009F315927803103184F2A502A2B
:10049E000B2B832A832A41302000A3002030A20098
:1004AE000030A1000030A000210058082000A70055
:1004BE00210057082000A600210056082000A500A4
:1004CE00210055082000A40088310620803120002C
:1004DE0023082100D800200022082100D700200088
:1004EE0021082100D600200020082100D50001306F
:1004FE00D1070030D23D832A210050082000BD00D4
:10050E0021004F082000BC0021004E082000BB0037
:10051E0021004D082000BA004130A3002030A20077
:10052E000030A1000030A000210058082000A700D4
:10053E00210057082000A600210056082000A50023
:10054E00210055082000A4008831062080312000AB
:10055E002308C1002208C0002108BF002008BE00E9
:10056E008031072080310318BD2ABE2A522AE22A82
:10057E00E22A4130F3002030F2000030F10000306A
:10058E00F00021005808F7005708F6005608F5004D
:10059E005508F40096312126803173082100D800C9
:1005AE007208D7007108D6007008D500FF30D10749
:1005BE00FF30D23DE22A210050082000BD0021006C
:1005CE004F082000BC0021004E082000BB00210077
:1005DE004D082000BA00210058082000C10021005B
:1005EE0057082000C000210056082000BF0021003F
:1005FE0055082000BE00803107208031031C082BD7
:10060E00092BC02A0B2B0B2B20004E08CF00D0013C
:10061E004F08F6005008F7009E319F26803176086D
:10062E002000D10051082100C20042082000CF0056
:10063E004F082100BF0067304206031D272B282BD1
:10064E004E2B6B086C04031D2D2B2E2B322B0130E1
:10065E00EB000030EC006C08803A2000CF008030B8
:10066E004F02031D3D2B013021006B020318402B5E
:10067E00412B472B06302100BC000030BD005D2B06
:10068E0021006C08BD006B08BC005D2B5D2BEC1BC4
:10069E00512B522B572B6C08BD006B08BC005D2BE9
:1006AE000630BC000030BD005D2B5D2B673042066E
:1006BE00031D622B632B9C2B5208803A2000CF0027
:1006CE007F304F02031D6E2BFC3021005102031CA4
:1006DE00712B722B952B21003C08FF3E2000CF0082
:1006EE00FF3021003D3D2000D0005008803AD1005F
:1006FE0021005208803A20005102031D8A2B21004E
:10070E00510820004F02031C8D2B8E2B952B66302B
:10071E002000CF004F082100BF009C2B6530200029
:10072E00CF004F082100BF009C2B3D08B5003C08B0
:10073E00B40067304206031DA52BA62BB12B6630E5
:10074E003F06031DAB2BAC2BB62BD21FAF2BB02B02
:10075E00B62BB12B0130B4070030B53DB62B663049
:10076E003F06031DBB2BBC2BD72BD21FBF2BC02B81
:10077E00CB2B3F30D8008030D7000030D600003071
:10078E00D500D101D201CB2B673042060319D02BF5
:10079E00D12BD72B5108B4075208B53DD72BD72BE9
:1007AE00CB01CC015008C6004F08C5004E08C4004E
:1007BE004D08C3005808A3005708A2005608A10010
:1007CE005508A000992C21005808F3005708F20094
:1007DE005608F1005508F0004608F7004508F600E7
:1007EE004408F5004308F400963121268031730841
:1007FE002000B0007208AF007108AE007008AD00A6
:10080E00953132258031200030082100CA002000A9
:10081E002F082100C90020002E082100C80020004A
:10082E002D082100C7004A08F3004908F2004808C5
:10083E00F1004708F00092314A2280317108210000
:10084E00B9007008B8004A082000A7002100490826
:10085E002000A600210048082000A500210047081E
:10086E002000A400210058082000A30021005708F2
:10087E002000A200210056082000A10021005508EA
:10088E002000A00088310620803120002308BD0002
:10089E002208BC002108BB002008BA00210046082F
:1008AE002000C100210045082000C000210044089E
:1008BE002000BF00210043082000BE009D311725F7
:1008CE00803120003D082100C60020003C08210098
:1008DE00C50020003B082100C40020003A0821007A
:1008EE00C3004130F3002030F2000030F100003040
:1008FE00F0005808F7005708F6005608F50055089E
:10090E00F40096312126803173082100D800720838
:10091E00D7007108D6007008D5000130CB07003023
:10092E00CC3D992C4C08803A2000CF002100350890
:10093E00803A20004F02031DA72C210034084B02E1
:10094E00031CAA2CAB2CEA2BAC2C40302000A300AD
:10095E00A030A2000030A1000030A00021005808F5
:10096E002000A700210057082000A60021005608ED
:10097E002000A500210055082000A4008831062083
:10098E008031200023082100CA0020002208210007
:10099E00C900200021082100C800200020082100E5
:1009AE00C70046082000BD00210045082000BC00FD
:1009BE00210044082000BB00210043082000BA009B
:1009CE0021004A082000C100210049082000C00073
:1009DE00210048082000BF00210047082000BE006B
:1009EE008031072080310318FD2CFE2C082D00309D
:1009FE002100CA000030C9000030C8000030C70016
:100A0E002F2D21004608F3004508F2004408F1009E
:100A1E004308F0004A08F7004908F6004808F500B8
:100A2E004708F4009F3159278031031C1F2D202DBC
:100A3E002F2D21003818242D252D2F2D0030CA00E2
:100A4E000030C9000030C8000030C7002F2D2F2DF8
:100A5E0021004A08F3004908F2004808F10047084F
:100A6E00F0005008F7004F08F6004E08F5004D084C
:100A7E00F4008A317122803173082100C600720899
:100A8E00C5007108C4007008C3002308D8002208EE
:100A9E00D7002108D6002008D50065303F0603197F
:100AAE00592D5A2D5F2D5208B7005108B600612DF1
:100ABE00B601B701B201B301B001B101CB01CC0156
:100ACE00912E21005808F3005708F2005608F10045
:100ADE005508F0004608F7004508F6004408F500F2
:100AEE004308F40096312126803173082000B000AF
:100AFE007208AF007108AE007008AD009531322556
:100B0E008031200030082100CA0020002F0821006B
:100B1E00C90020002E082100C80020002D08210049
:100B2E00C7004A08F3004908F2004808F1004708D8
:100B3E00F00092314A22803171082100B90070080C
:100B4E00B8006D1AAB2DAC2DC12D38083904031D1C
:100B5E00B12DB22DC12D67304206031DB72DB82D14
:100B6E00C12DB71FBB2DBC2DC12D0130B0070030DC
:100B7E00B13D1E2E32083304031DC62DC72D002E87
:100B8E00B71FCA2DCB2D002E2E302000CF002100F6
:100B9E005308A03E86000130870020004F088100D8
:100BAE0001302100D3070030D43DFF30C007FF30A5
:100BBE00C13D0130B2000030B300002E002E3030A7
:100BCE002000CF0021005308A03E86000130870090
:100BDE0020004F08810001302100D3070030D43DA2
:100BEE00FF30C007FF30C13DFF30B007FF30B13DD1
:100BFE00002E30083104031D052E062EE62D072E7D
:100C0E003808303E2000CF0021005308A03E860059
:100C1E000130870020004F08810001302100D307EA
:100C2E000030D43DFF30C007FF30C13D1E2E4A08B4
:100C3E002000A700210049082000A6002100480836
:100C4E002000A500210047082000A400210058081C
:100C5E002000A300210057082000A2002100560802
:100C6E002000A100210055082000A0008831062098
:100C7E00803120002308BD002208BC002108BB00E3
:100C8E002008BA00210046082000C10021004508B6
:100C9E002000C000210044082000BF0021004308AE
:100CAE002000BE009D311725803120003D08210017
:100CBE00C60020003C082100C50020003B08210092
:100CCE00C40020003A082100C3004130F300203058
:100CDE00F2000030F1000030F0005808F70057081D
:100CEE00F6005608F5005508F4009631212680319D
:100CFE0073082100D8007208D7007108D60070085A
:100D0E00D500FF30B607FF30B73D0130CB070030BE
:100D1E00CC3D912E4C08803A2000CF0021003508A2
:100D2E00803A20004F02031D9F2E210034084B02F3
:100D3E000318A22EA32EB52E21005408803A2000AF
:100D4E00CF0080304F02031DAF2E4B3021005302D7
:100D5E00031CB22EB32E682DB52EB52E21003208EF
:100D6E003304031DBB2EBC2ED22E6D1EBF2EC02EE5
:100D7E00D22E2E302000CF0021005308A03E860038
:100D8E000130870020004F08810001302100D30779
:100D9E000030D43DD22E5308A03E8600013087008D
:100DAE00810165303F06031DDD2EDE2ECE2F4F3026
:100DBE00CB000030CC004B08A03E860001308700EF
:100DCE008101BA01BB01D21FED2EEE2EF82E01309D
:100DDE00BA000030BB00D109D209D10A0319D20AD8
:100DEE00F82E0230BC000030BD00342FFF30210041
:100DFE00CB07FF30CC3D0A30F0000030F100520836
:100E0E00F3005108F20090319A2080317008303E84
:100E1E002000CF0021004B08A03E86000130870045
:100E2E0020004F0881000A30F0000030F100210050
:100E3E005208F3005108F20091315E2180317108A1
:100E4E002100D2007008D100FF30BC07FF30BD3D3D
:100E5E00FF30C007FF30C13D342F51085204031D2F
:100E6E00392F3A2FFD2E3D08803A2000CF008030DA
:100E7E004F02031D452F013021003C020318482F5D
:100E8E00492FFD2E4A2FFF302100CB07FF30CC3DDE
:100E9E003A083B04031D542F552F5A2F2B30AA000E
:100EAE000030AB005F2F2D30AA000030AB005F2F5B
:100EBE002A082000CF0021004B08A03E86000130FA
:100ECE00870020004F088100FF302100C007FF304F
:100EDE00C13DFF30CB07FF30CC3D20004E08BF3E5A
:100EEE00CF00FF3003180030D000003050021A300F
:100EFE0003194F02031C842F862F0130872F0030D9
:100F0E00D100D20151082100AE002000520821006C
:100F1E00AF00A22F20004E08CF00D0014F08F000E6
:100F2E005008F1009C31DF24803171082100AF00A0
:100F3E007008AE00A22F2E082F04031DA72FA82F76
:100F4E00AD2F6530AC000030AD00B22F4530AC0097
:100F5E000030AD00B22F2C082000CF0021004B082E
:100F6E00A03E86000130870020004F088100FF3030
:100F7E002100C007FF30C13D4B08A03EF0000130FC
:100F8E00F1005308A03E9D319F258031CE2FA03019
:100F9E002000CF004F08A700210041082000A90023
:100FAE00210040082000A80021003E0890313E207C
:100FBE00803120002808CB002708CA00E62F080041
:100FCE002100EB01EC01ED01EE01EF012030840078
:100FDE00013085002D30883100208731A03084000B
:100FEE0001308500503088310020873120009F313C
:100FFE00A92F640080010131890B012800342000E3
:10100E0023088039A8002808AD002335A800280839
:10101E00B300A21F132814281628331416283308D9
:10102E0003191A281B282B28330A031D1F282028D2
:10103E0029280030A3000030A2000030A1000030AB
:10104E00A0002928A21734280030A3000030A200E7
:10105E000030A1000030A000342827088039A800F5
:10106E002808AD062735A8002808B200A61F40287C
:10107E0041284328321443283208031947284828A8
:10108E005828320A031D4C284D2856280030A70038
:10109E000030A6000030A5000030A4005628A61788
:1010AE0061280030A7000030A6000030A5000030F7
:1010BE00A400612832080319652866286C283308B5
:1010CE00031D6A286B2876286C280030A300003098
:1010DE00A2000030A1000030A000702A702A200863
:1010EE00A8002808F00026089D31C3258831710814
:1010FE002000B9007008B8003808A800A901AA019C
:10110E00AB012B08B1002A08B0002908AF0028084F
:10111E00AE003908A800A901AA01AB012B08B7003F
:10112E002A08B6002908B5002808B4002108A8002E
:10113E002808F00025089D31C3258831710820004C
:10114E00B9007008B8003808A800A901AA01AB01BF
:10115E002808AE072908AF3D2A08B03D2B08B13D3F
:10116E003908A800A901AA01AB012808B40729086B
:10117E00B53D2A08B63D2B08B73D2208A800280821
:10118E00F00024089D31C325883171082000B90074
:10119E007008B8003808A800A901AA01AB012808F8
:1011AE00AE072908AF3D2A08B03D2B08B13D3908DE
:1011BE00A800A901AA01AB012808B4072908B53D6A
:1011CE002A08B63D2B08B73D0830AE35AF0DB00D31
:1011DE00B10D890BEC282108A8002808F00024087E
:1011EE009D31C325883171082000B9007008B80000
:1011FE003808AE073908AF3D0030B03DB13D20088C
:10120E00A8002808F00025089D31C32588317108F3
:10121E002000B9007008B8003808AE073908AF3D95
:10122E000030B03DB13D0830AE35AF0DB00DB10D53
:10123E00890B1B292008A8002808F00024089D31DE
:10124E00C325883171082000B9007008B80038082D
:10125E00AE073908AF3D0030B03DB13D2108A800C2
:10126E002808F00026089D31C3258831710820001A
:10127E00B9007008B8003808B4073908B53D003019
:10128E00B63DB73D2208A8002808F00025089D317C
:10129E00C325883171082000B9007008B8003808DD
:1012AE00B4073908B53D0030B63DB73D2208A80059
:1012BE002808F00026089D31C325883171082000CA
:1012CE00B9007008B8003808A8003908A900AA01AA
:1012DE00AB010830A835A90DAA0DAB0D890B7129EC
:1012EE002808B4072908B53D2A08B63D2B08B73D96
:1012FE002E08A8002F08A9003008AA003108AB005C
:10130E001830AB36AA0CA90CA80C890B8829280812
:10131E00B4072908B53D2A08B63D2B08B73D08305D
:10132E00AE35AF0DB00DB10D890B972933083207CD
:10133E00A800A901A90D2808823EB800FF30293D5A
:10134E00B900C2290130B435B50DB60DB70D890BF4
:10135E00AA29B11FB329B429B6293414B6290130EC
:10136E00AE35AF0DB00DB10D890BB729FF30B807F3
:10137E00FF30B93DC229B61FC529C629A929C729DB
:10138E00B201B11FCB29CC29EC29FF302E05A800C4
:10139E00FF302F05A900FF303005AA007F30310540
:1013AE00AB002B082A04290428040319DF29E0299D
:1013BE00E329B201B20AEC29341CE629E729EC290B
:1013CE00B201B20AEC29EC29EC2932080319F029F2
:1013DE00F1291B2A0130B4070030B53D0030B63D6F
:1013EE000030B73D371CFC29FD291B2A3408A80004
:1013FE003508A9003608AA003708AB000130AC004A
:10140E00AB37AA0CA90CA80CAC0B072A2B08B700FB
:10141E002A08B6002908B5002808B4000130B8071C
:10142E000030B93D1B2A1B2A3908803AA8008030AB
:10143E002802031D242AFF303802031C272A282ADB
:10144E00322A7F302000B7008030B6000030B50061
:10145E000030B400632A20003908803AA80080309A
:10146E002802031D3C2A0130380203183F2A402A65
:10147E004B2A00302000B7000030B6000030B50017
:10148E000030B400AD01632A20003808A8002808F7
:10149E00B300FF30B405FF30B5057F30B605003020
:1014AE00B705331C5B2A5C2A5E2AB6175E2A3336D2
:1014BE00A8002808B700632A2D08A8002808B7043A
:1014CE003708A3003608A2003508A1003408A00092
:1014DE00702A0800730880392000A0002008F80048
:1014EE007335A0002008FA00F21F7E2A7F2A812A77
:1014FE007A14812A7A080319852A862A972A7A0A63
:10150E00031D8A2A8B2A942A0030F3000030F20041
:10151E000030F1000030F000942AF217F301A02AF7
:10152E000030F3000030F2000030F1000030F00027
:10153E00A02A77088039A0002008F90079087806DB
:10154E000319AA2AAB2AAD2A7817AD2A7735A0003F
:10155E002008F900F61FB42AB52AB72A7914B72A3B
:10156E0079080319BB2ABC2ACD2A790A031DC02A81
:10157E00C12ACA2A0030F7000030F6000030F5000C
:10158E000030F400CA2AF617F701D52A0030F7000A
:10159E000030F6000030F5000030F4007A087902D1
:1015AE000318DA2ADB2A212B781FDE2ADF2AE42A07
:1015BE008030A0002008F806E42A7A08A00020084F
:1015CE00FB007908A0002008FA007B08A000200884
:1015DE00F9007008A0002008FB007408A000200885
:1015EE00F0007B08A0002008F4007108A00020087D
:1015FE00FB007508A0002008F1007B08A000200861
:10160E00F5007208A0002008FB007608A000200854
:10161E00F2007B08A0002008F6007308A000200846
:10162E00FB007708A0002008F3007B08A00020082C
:10163E00F700212BFB017A08A000A101A009A10946
:10164E00A00A0319A10A79082007A200210803188D
:10165E00210AA3002308803AA40080302402031D2F
:10166E003A2B1A302202031C3D2B3E2B7C2B730887
:10167E00720471047004031D452B472B0130482B57
:10168E0000302000A0002008FB000030F3000030E6
:10169E00F2000030F1000030F0007908A0002008C0
:1016AE00FA00832B7C2B7B1C5D2B5E2B652B7B36F4
:1016BE0001382000A0002008FB00682B0310FB0C53
:1016CE00682B701C6B2B6C2B6E2BFB176E2B01304B
:1016DE002000A000F337F20CF10CF00CA00B712BD4
:1016EE000130A0002008FA077C2B79087A02031C2F
:1016FE00812B822B5A2B832B781B862B872BC52B6A
:10170E007A08031D8B2B8C2B962B0030F3000030A8
:10171E00F2000030F1000030F000E92CE92C7408E2
:10172E00F0077508F13D7608F23D7708F33D731C1E
:10173E00A12BA22B6D2C7B1CA52BA62BAD2B7B36A8
:10174E0001382000A0002008FB00B02B0310FB0C7A
:10175E00B02B701CB32BB42BB62BFB17B62B013052
:10176E002000A000F337F20CF10CF00CA00BB92BFB
:10177E000130A0002008FA076D2C6D2C7308803AFA
:10178E002000A0007708803A2002031DD82B76088F
:10179E007202031DD82B75087102031DD82B740815
:1017AE0070020318DB2BDC2B282CFF30A000FF303F
:1017BE00A100FF30A200FF30A3007408A40075083A
:1017CE00A5007608A6007708A7007009A800710981
:1017DE00A9007209AA007309AB00A80A0319A90A85
:1017EE000319AA0A0319AB0A2808A4072908A53D5C
:1017FE002A08A63D2B08A73D2408A0072508A13DD1
:10180E002608A23D2708A33D2308F3002208F20074
:10181E002108F1002008F0008030A0002008F80612
:10182E00FB09FB0A7B08031D1D2C1E2C302C0130DE
:10183E00F0070030F13D0030F23D0030F33D302C2A
:10184E00302C7408F0027508F13B7608F23B7708ED
:10185E00F33B7308720471047004031D372C382C8B
:10186E00672C7B08031D3C2C3D2C672C0030F300AD
:10187E000030F2000030F1000030F000E92CE92CCD
:10188E00672C0130F035F10DF20DF30D890B492C5B
:10189E00FB1F522C532C542C70147B1C572C582C81
:1018AE005B2C0314FB0D5E2C0310FB0D5E2C7A08D3
:1018BE000319622C632C672C0130FA02672C672CFB
:1018CE00F21F6A2C6B2C482C6D2C6D2CF901FB1F12
:1018DE00712C722C842C7B087F390319772C782C71
:1018EE007B2CF901F90A842C701C7E2C7F2C842C05
:1018FE00F901F90A842C842C842C79080319882C7C
:10190E00892CB92C0130F0070030F13D0030F23D4A
:10191E000030F33D731C942C952CB92C70082000CC
:10192E00A0007108A1007208A2007308A300013084
:10193E00A400A337A20CA10CA00CA40BA02C23086E
:10194E00F3002208F2002108F1002008F0007A0AC4
:10195E000319B22CB32CB92C0130A0002008FA07C1
:10196E00B92CB92C7A0A0319BD2CBE2CC42C7A08BA
:10197E00031DC22CC32CD42CC42C0030F300003019
:10198E00F2000030F1000030F0007A08031DD02C78
:10199E00D12CD42CF801D42CD42C7A1CD72CD82CA6
:1019AE00DA2CF217DF2C7F302000A0002008F20581
:1019BE007A362000A0002008F300F81FE72CE82C50
:1019CE00E92CF31708002000E90053088600870170
:1019DE00403FD500413FD60055088400560885008B
:1019EE001200253A031DFC2CFD2CD82F530886001F
:1019FE0087010130810741310318810A2200C70196
:101A0E00C8012100ED01EE01FF30EB00FF30EC00CC
:101A1E002000530886008701403FD500413FD60085
:101A2E00550884005608850012002A3A031D202D01
:101A3E00212D442D53088600870101308107413145
:101A4E000318810A54088600870101088400850165
:101A5E0002308107003F2200C700013FC800C81FA7
:101A6E00392D3A2DA72D21006D142200C709C80962
:101A7E00C70A0319C80AA72DA72D200053088600F0
:101A8E008701403FF600413FF700943148248C31E6
:101A9E0077082200C8007608C7005F2D2000530883
:101AAE00860087010130810741310318810A5F2DBD
:101ABE002000530886008701403FD500413FD600E5
:101ACE0055088400560885000008D03ED700FF3028
:101ADE0003180030D800003058020A30031957029C
:101AEE00031C7A2D7C2D01307D2D0030D900DA01BA
:101AFE005908DB005A08DC009F2D53088600870129
:101B0E00403FD500413FD600550884005608850059
:101B1E000008D700D8015708F0005808F1009C3192
:101B2E00C6248C3171082000DC007008DB009F2D6C
:101B3E005B085C04031DA42DA52D552DA72DA72DE7
:101B4E002000530886008701403FD500413FD60054
:101B5E00550884005608850012002E3A031DB82D34
:101B6E00B92D502E2100EB01EC0120005308860008
:101B7E0087010130810741310318810A530886001D
:101B8E008701403FD500413FD600550884005608D6
:101B9E00850012002A3A031DD52DD62DEC2D5308A3
:101BAE00860087010130810741310318810A5408EC
:101BBE008600870101088400850102308107003FFD
:101BCE002100EB00013FEC00502E20005308860050
:101BDE008701403FF600413FF700943148248C3195
:101BEE0077082100EC007608EB00072E2000530842
:101BFE00860087010130810741310318810A072EC3
:101C0E002000530886008701403FD500413FD60093
:101C1E0055088400560885000008D03ED700FF30D6
:101C2E0003180030D800003058020A30031957024A
:101C3E00031C222E242E0130252E0030D900DA016D
:101C4E005908DD005A08DE00472E5308860087012A
:101C5E00403FD500413FD600550884005608850008
:101C6E000008D700D8015708F0005808F1009C3141
:101C7E00C6248C3171082000DE007008DD00472E6E
:101C8E005D085E04031D4C2E4D2EFD2D502E502E44
:101C9E00502E2000530886008701403FD500413F5B
:101CAE00D60055088400560885000008D700D801D4
:101CBE005708F6005808F7009E319F268C3176089B
:101CCE002000D9005908E500650803196F2E702E03
:101CDE00B12E530886008701403FD500413FD60004
:101CEE0001305507840056080318560A850000086F
:101CFE00D700D8015708F6005808F7009E319F26E6
:101D0E008C3176082000D9005908E60066080319C0
:101D1E00912E922EB12E530886008701403FD5009A
:101D2E00413FD60002305507840056080318560A64
:101D3E0085000008D700D8015708F6005808F700AC
:101D4E009E319F268C3176082000D9005908E70075
:101D5E00B12EB12E66306506031DB62EB72EF52EAA
:101D6E00530886008701403FD500413FD6005508F5
:101D7E008400560885000008D7005708E80053086D
:101D8E00860087010130810741310318810A54080A
:101D9E008600870101088400850104308107003F19
:101DAE00E100013FE200023FE300033FE40064086C
:101DBE00CD006308CC006208CB006108CA00680839
:101DCE00D5005508CE0069088031B5208C31200031
:101DDE004B08D4004A08D300FF2FFF2F6B30F000C2
:101DEE00A030F1000230F2000030F3006530903187
:101DFE00F7208C3170087104031D062F072FA02FBA
:101E0E002000530886008701403FD500413FD60091
:101E1E0001305507840056080318560A850000083D
:101E2E00D7005708E800530886008701403FD500C9
:101E3E00413FD60055088400560885000008BF3E75
:101E4E00D700FF3003180030D800003058021A3087
:101E5E0003195702031C342F362F0130372F003051
:101E6E00D900DA015908DF005A08E000592F53084B
:101E7E0086008701403FD500413FD60055088400BB
:101E8E00560885000008D700D8015708F0005808FA
:101E9E00F1009C31DF248C3171082000E0007008C5
:101EAE00DF00592F5F08600403195E2F5F2F702F1C
:101EBE0054088600870101088400850104308107DB
:101ECE00003FE100013FE200023FE300033FE40078
:101EDE00812F540886008701010884008501043093
:101EEE008107003FE100013FE200023FE300033FB4
:101EFE00E400812F530886008701023081074131AB
:101F0E000318810A6408CD006308CC006208CB0078
:101F1E006108CA006808D5005508CE0069088031EE
:101F2E00B5208C3120004B08D4004A08D300FF2F77
:101F3E00FF2F2000530886008701403FD500413F08
:101F4E00D60055088400560885001200253A031D58
:101F5E00B12FB22FCC2F5308860087010130810795
:101F6E0041310318810A2530F3000030F40069086E
:101F7E00D5005508F5009F3115278C310130200012
:101F8E00D3000030D400FF2FFF2F530886008701A7
:101F9E000130810741310318810AD301D401FF2F8B
:101FAE00FF2F530886008701403FD500413FD600E2
:101FBE0055088400560885000008D700D801570838
:101FCE00F3005808F4006908D9005908F5009F314C
:101FDE0015278C31200053088600870101308107B8
:101FEE0041310318810A0130D3000030D400FF2F95
:101FFE00080016302100970008002100D9002000AB
:10200E006B082100DB0020006A082100DA002200A4
:10201E00C501C6012928DA302000ED006D08D30075
:10202E006C08EE006E08D400210059088C31EA24A9
:10203E009031200053082200C507200054082200CA
:10204E00C63D292821005A0884005B08850012002D
:10205E00031D322833281228342822004608200077
:10206E00EB00220045082000EA003D280800200071
:10207E00AE0021006D1C442845284F2820002E0854
:10208E00FC007C08FB0027089E31132690314F2858
:10209E002000A91B5328542859282908AD002808C8
:1020AE00AC005B28AC01AD01AA01AB017028203059
:1020BE00F3000030F40020002E08FC007C08F50030
:1020CE009F311527903101302000AA070030AB3D1B
:1020DE0070282B08803AFC002D08803A7C02031DE4
:1020EE007A282C082A02031C7D287E285E282100CF
:1020FE006D18822883288C2820002E08FC007C086E
:10210E00FB0027089E3113269031200027089D31B1
:10211E00E925903120002C087007A7002D08713D8D
:10212E00A80099280800F601F31F9E289F28A728CB
:10213E00F209F309F20A0319F30AF601F60AA728BF
:10214E00F11FAA28AB28B128F009F109F00A0319EA
:10215E00F10AB128700871040319B628B728E628C9
:10216E00F501F50AC4280130F035F10D890BBB28B5
:10217E000130F4007408F507C428F11FC728C828D9
:10218E00BA28CA28CA2871087302031DD0287008FD
:10219E007202031CD328D428D9287008F2027108C1
:1021AE00F33BD9280130F136F00C890BDA280130D7
:1021BE00F502031DE328E428CA28E628E628760857
:1021CE000319EA28EB28F128F209F309F20A031998
:1021DE00F30AF1287308F1007208F000F6280800DF
:1021EE00F6007608F4007408F9007108F80070081B
:1021FE00F7000130F2020030F33B720A031D0B2987
:10220E00730A031D0B290C291E29F001F1015D290A
:10221E005D291E290130F4007408F9070130F70713
:10222E000030F83D0130F2020030F33B1E297908F0
:10223E0086008701010803192529262946297708D2
:10224E00840078088500120003192E292F294629AB
:10225E007208730403193429352946297708840036
:10226E00780885000008F4007908860087010108C7
:10227E00740603194329442911294629462977084A
:10228E008400780885000008F400F501F409F509CA
:10229E00F40A0319F50A7908860087010108740704
:1022AE00F00075080318750AF1005D290800F601A3
:1022BE00F11F622963296B29F009F109F00A03194C
:1022CE00F10AF601F60A6B29F31F6E296F29792997
:1022DE00F209F309F20A0319F30A0130F400740843
:1022EE00F6067929F701F80170087104031980299F
:1022FE008129B629F501F50A8E290130F035F10D47
:10230E00890B85290130F4007408F5078E29F11F19
:10231E00912992298429942994290130F735F80DB1
:10232E00890B952971087302031D9F29700872028B
:10233E00031CA229A329A9297008F2027108F33BF4
:10234E007714A9290130F136F00C890BAA29013036
:10235E00F502031DB329B4299429B629B6297608A6
:10236E000319BA29BB29C129F709F809F70A031974
:10237E00F80AC1297808F1007708F000C62908008C
:10238E00220044082000A500220043082000A400DB
:10239E00220042082000A300220041082000A200D3
:1023AE007308A5007208A4007108A3007008A200AB
:1023BE002208F4002308F5002408F6002508F7008B
:1023CE001730F736F60CF50CF40C890BE829FF30B4
:1023DE007405A00000307505A10020082104031D1E
:1023EE00F929FA291D2A2208F4002308F5002408E9
:1023FE00F6002508F7000130F435F50DF60DF70D52
:10240E00890B032A7708760475047404031D102AB9
:10241E00112A162A0230F0000030F100492A03304A
:10242E00F0000030F100492A492A492A200A2104E5
:10243E00031D222A232A442A2208F4002308F50029
:10244E002408F6002508F7000930F435F50DF60DD1
:10245E00F70D890B2C2A770876047504740403197A
:10246E00392A3B2A01303C2A0030F800F90178085D
:10247E00F0007908F100492A492A0430F0000030B2
:10248E00F100492A08007008F4007108F50072087E
:10249E00F6007308F7000310760D770DF800780834
:1024AE00FA007A08031D5C2A5D2A672A0030F300C1
:1024BE000030F2000030F1000030F000DD2ADD2A9D
:1024CE007008F4007108F5007208F6007308F70042
:1024DE001F30F736F60CF50CF40C890B702A7408C5
:1024EE00F8007808F900F217FF30F005FF30F1051B
:1024FE00FF30F2050030F3059630FA02FA1F882AF3
:10250E00892AAC2A7A08803A973E03188F2A902A95
:10251E009B2A0030F3000030F2000030F100003052
:10252E00F000DD2ADD2A9B2A0130F336F20CF10C85
:10253E00F00C890B9C2A0130F4007408FA07031D75
:10254E00A92AAA2A9B2ACD2ACD2A20307A02031C38
:10255E00B12AB22AC62A0030F3000030F200003051
:10256E00F1000030F000DD2ADD2AC62A0130F035F8
:10257E00F10DF20DF30D890BBE2A0130FA027A0825
:10258E00031DCA2ACB2ABD2ACD2ACD2A79080319C2
:10259E00D12AD22ADD2AF009F109F209F309F00A4B
:1025AE000319F10A0319F20A0319F30A0800F800D5
:1025BE0078080319E32AE42AF82AF31FE72AE82AFF
:1025CE00F82A7009FA007109FB007209FC00730900
:1025DE00FD00FA0A0319FB0A0319FC0A0319FD0A86
:1025EE00002B7308FD007208FC007108FB007008D8
:1025FE00FA007308720471047004031D072B082B74
:10260E00122B0030F3000030F2000030F1000030E9
:10261E00F000912B912B9630F4007408F900232BC7
:10262E000130F4007408F9070130FD36FC0CFB0C88
:10263E00FA0C890B1C2B232BFE307D05031D282B3A
:10264E00292B172B3E2B3E2B0130F4007408F90773
:10265E000130FA070030FB3D0030FC3D0030FD3DFF
:10266E000130FD36FC0CFB0CFA0C890B382BFF30BD
:10267E007D05031D432B442B2B2B502B502B013050
:10268E00F9020130FA35FB0DFC0DFD0D890B492BBE
:10269E00502BFC1B532B542B5B2B0230790203184F
:1026AE00592B5A2B462B5B2B79185E2B5F2B672BE6
:1026BE00FF30FA05FF30FB057F30FC05FF30FD05CE
:1026CE000310F90C7908F400F501F601F701183042
:1026DE00F435F50DF60DF70D890B6F2B7408FA0412
:1026EE007508FB047608FC047708FD0478080319C6
:1026FE00812B822B882BF31F852B862B882BFD1786
:10270E00882B7D08F3007C08F2007B08F1007A0824
:10271E00F000912B08002000C401C301C501C601C1
:10272E009C314B24933190309E316C269331003086
:10273E009E316C2693319C316324933191309E31BE
:10274E006C26933101309E31D22693312000BE008B
:10275E003E08C30000309E31D22693312000BE00C9
:10276E003E08C4009C31572493312000441CC02BDA
:10277E00C12BEC2B4408BE000330BE36890BC42B94
:10278E003E08BF00C0014308C100C2010530C1357B
:10279E00C20D890BCE2B3F084104C50040084204F0
:1027AE00C6004608803ABE0090303E02031DE12B63
:1027BE0000304502031CE42BE52B1B2C00302000BF
:1027CE00C504E030C6041B2C1B2C4408BE0004308C
:1027DE00BE36890BEF2B3E08BF00C0014308C10077
:1027EE00C201C10EC20EF030C20541080F39C2043B
:1027FE00F030C1053F084104C50040084204C60040
:10280E004608803ABE0088303E02031D102C003070
:10281E004502031C132C142C1B2C00302000C50465
:10282E00F030C6041B2C1B2C3D302000A300803042
:10283E00A2000030A1000030A0004508F0004608BC
:10284E00F100890D893B8909F200F30001309231C4
:10285E00DE22933173082000A7007208A6007108CB
:10286E00A5007008A40088310620933120002308AB
:10287E00BD002208BC002108BB002008BA00472C6E
:10288E0008002000A701A801A001A101532C0130CE
:10289E00F6070030F73D532CA601A60A76088400F1
:1028AE00770885001200203A03195E2C5F2C752CD8
:1028BE0076088400770885000008F73EF800FF30A0
:1028CE0003180030F9000030790205300319780240
:1028DE00031C722C732C752CA601752C2608F8007F
:1028EE00F9017808A2007908A300912C76088400DB
:1028FE00770885000008F800F9017808F0007908DB
:10290E00F1009D317C25943171082000A3007008E0
:10291E00A200912C22082304031D962C972C4E2CDA
:10292E00A32CA32C01302000A0000030A100013008
:10293E00F6070030F73DE02C760884007708850016
:10294E000008F800F9017908003A0319AF2CE02CC1
:10295E0078082B3A03199E2C063A0319992CE02C71
:10296E00E02C76088400770885000008D03EF80039
:10297E00FF3003180030F900F809F909F80A0319B5
:10298E00F90A20002808F1002708F0000A30F200AA
:10299E000030F3009D315A259431780870072000DD
:1029AE00A7007908713DA8000130F6070030F73D09
:1029BE00E02C76088400770885000008D03EF800E9
:1029CE00FF3003180030F900003079020A30031985
:1029DE007802031CF32CF52C0130F62C0030FA0093
:1029EE00FB017A082000A4007B08A500122D7608B2
:1029FE008400770885000008F800F9017808F000D7
:102A0E007908F1009C31C624943171082000A5008C
:102A1E007008A400122D24082504031D172D182D4F
:102A2E00B82C192D20082104031D1E2D1F2D2B2D12
:102A3E002709F8002809F900F80A0319F90A780895
:102A4E00F6007908F700312D2808F7002708F60060
:102A5E00312D312D0800220040082000C000220038
:102A6E003F082000BF0022003E082000BE002200CA
:102A7E003D082000BD003008C0002F08BF002E0802
:102A8E00BE002D08BD003D08B1003E08B2003F0853
:102A9E00B3004008B4001730B436B30CB20CB10C0E
:102AAE00890B532DFF303105B50000303205B600CD
:102ABE003508813EBB00FF30363DBC003C08803AF5
:102ACE00B10080303102031D6E2D17303B02031C06
:102ADE00712D722D732D202E2000BC1B772D782D7D
:102AEE00D62DFF30B100FF30B2007F30B300003082
:102AFE00B4003B0A862DB437B30CB20CB10C890B63
:102B0E00822D3408BA003308B9003208B8003108F3
:102B1E00B7003D083705B1003E083805B2003F0842
:102B2E003905B30040083A05B400340833043204C2
:102B3E003104031DA32DA42DA52D202E3D08B1007B
:102B4E003E08B2003F08B3004008B4001F30B43650
:102B5E00B30CB20CB10C890BAE2D34083304320415
:102B6E0031040319BB2DBC2DC52D3708BD07380800
:102B7E00BE3D3908BF3D3A08C03DC52D3709B100ED
:102B8E003809B2003909B3003A09B4003108BD055D
:102B9E003208BE053308BF053408C005172E3D08A0
:102BAE00B1003E08B2003F08B3004008B4001F3029
:102BBE00B436B30CB20CB10C890BDF2D34083304D0
:102BCE0032043104031DEC2DED2DF62D0030C00026
:102BDE000030BF000030BE000030BD00172E3D0893
:102BEE00B1003E08B2003F08B3004008B400013007
:102BFE00B135B20DB30DB40D890BFF2D340833046E
:102C0E003204310403190C2E0D2E172EBF30C000C6
:102C1E008030BF000030BE000030BD00172E172ED2
:102C2E004008B0003F08AF003E08AE003D08AD00C2
:102C3E00202E080077088039F80078082000A400BC
:102C4E007735F8007808AB00F61F2E2E2F2E312E7A
:102C5E002B14312E2B080319352E362E472E2B0A08
:102C6E00031D3A2E3B2E442E0030F7000030F600A6
:102C7E000030F5000030F400442EF617F701502E08
:102C8E000030F7000030F6000030F5000030F400A0
:102C9E00502E73088039F8007808A4067335F800B2
:102CAE007808AC00F21F5C2E5D2E5F2E2C145F2E6A
:102CBE002C080319632E642E752E2C0A031D682E04
:102CCE00692E722E0030F3000030F2000030F10059
:102CDE000030F000722EF217F3017D2E0030F3005B
:102CEE000030F2000030F1000030F0007308720482
:102CFE0071047004031D842E852E9F2E0030F70064
:102D0E000030F6000030F5000030F4008030F6049C
:102D1E007F30F7042408F8007808F7047708F300EA
:102D2E007608F2007508F1007408F000FF2FFF2FEF
:102D3E002B08031DA32EA42EB62E0030F700003054
:102D4E00F6000030F5000030F4007708F300760846
:102D5E00F2007508F1007408F000FF2FFF2F2C0809
:102D6E00F800F901F809F909F80A0319F90A2B080C
:102D7E007807FA0079080318790AFB007A087F3E73
:102D8E00A50000307B3DA6007708A3007608A200C0
:102D9E007508A1007408A0000030F7000030F6009E
:102DAE000030F5000030F4000030AA000030A90019
:102DBE000030A8000030A700AC01272F2C08031903
:102DCE00E92EEA2E062F0130A035A10DA20DA30D7E
:102DDE00890BEB2E0130F435F50DF60DF70D890B41
:102DEE00F22EAA1FFB2EFC2EFE2E7414FE2E013088
:102DFE00A735A80DA90DAA0D890BFF2E062F730856
:102E0E002302031D142F72082202031D142F7108B2
:102E1E002102031D142F70082002031C172F182FD8
:102E2E00222F2A177008A0027108A13B7208A23B3C
:102E3E007308A33B222F0130F8007808AC07272F28
:102E4E001A302C02031C2C2F2D2FE52E2E2F23088B
:102E5E002204210420040319352F362F522F271454
:102E6E00522F522F0130F435F50DF60DF70D890B5B
:102E7E003A2FAA1F432F442F462F7414462F01308A
:102E8E00A735A80DA90DAA0D890B472FFF30A50751
:102E9E00FF30A63D522FF61F552F562F392F572F85
:102EAE00AC01AA1F5B2F5C2F7C2FFF302705F8008B
:102EBE00FF302805F900FF302905FA007F302A057A
:102ECE00FB007B087A047904780403196F2F702FA6
:102EDE00732FAC01AC0A7C2F741C762F772F7C2FAE
:102EEE00AC01AC0A7C2F7C2F7C2F2C080319802F71
:102EFE00812FAB2F0130F4070030F53D0030F63D49
:102F0E000030F73D771C8C2F8D2FAB2F7408F800F7
:102F1E007508F9007608FA007708FB000130FC000E
:102F2E00FB37FA0CF90CF80CFC0B972F7B08F7000B
:102F3E007A08F6007908F5007808F4000130A50744
:102F4E000030A63DAB2FAB2F2608803AF80080301C
:102F5E007802031DB42FFF302502031CB72FB82FA4
:102F6E00C52FFF302000A5000030A6000030F7006E
:102F7E000030F6000030F5000030F4002000260886
:102F8E00803AF80080307802031DCF2F01302502E1
:102F9E000318D22FD32FDF2F2000A501A60100305A
:102FAE00F7000030F6000030F5000030F400A40108
:102FBE0020002508F8007808AB002B1CE72FE82F1F
:102FCE00EA2FF617EE2F7F30F8007808F6052B362D
:102FDE00F8007808F7002408F8007808F704770856
:102FEE00F3007608F2007508F1007408F000FF2F68
:022FFE000800C9
:1038280071082200CE007008CD000800710822003F
:10383800D2007008D100080071082200D00070087A
:10384800CF00080032009101920193019401950183
:10385800960108006030320099009B019D010630F6
:103868009F009E010800F2007208F1007108F00044
:103878009C3140249C310800412C2000111E452C0D
:10388800462C412C472C700823009A0008009C31D4
:103898008C249C3124001614512C1618542C552CA9
:1038A800512C562C08009C318C249C312400161570
:1038B8005D2C1619602C612C5D2C622C08009C3143
:1038C8008C249C3124009614692C96186C2C6D2C31
:1038D800692C6E2C080073087204710470040319B3
:1038E800762C772C7A2C8030F3067A2C7B2C0800E7
:1038F8002400951A802C812C8B2C9401283095005B
:103908009601273092008B2C8B2C8B2C8B2C08004B
:103918008E2C8E2C2400140C890C0139F00016080A
:103928001F397004031D992C9A2C8E2C9B2C08008F
:103938009C3126249C319E313E269C319C312E247C
:103948009C31903100209C319D3138259C319C312F
:103958007C249C3108009C314B249C3190309E3152
:103968006C269C3101309E316C269C3160309E3132
:103978006C269C31A0309E316C269C319C3157249A
:103988009C3108007008D03EF200FF30713DF30012
:10399800003073020A3003197202031CD42CD62C8F
:1039A8000130D72C0030F400F5017408F0007508D8
:1039B800F100DE2C08007008BF3EF200FF30713DB8
:1039C800F300003073021A3003197202031CED2C45
:1039D800EF2C0130F02C0030F400F5017408F000F1
:1039E8007508F100F72C0800DE302000EF006F08A2
:1039F8002100E4005D082000EB0021005C082000A5
:103A0800EA00E430EF006F08EC0000309031042049
:103A18009C3120006B082100E30020006A08210087
:103A2800E200162D080080302000BD064108F30092
:103A38004008F2003F08F1003E08F0003D08F7009A
:103A48003C08F6003B08F5003A08F4008A31712278
:103A58009D3173082000BD007208BC007108BB00CE
:103A68007008BA00372D0800083023009F009030F6
:103A78009D0024309E0022309B009C010030F00005
:103A88000030F1009C311A249D310030F0000030E4
:103A9800F1009C3120249D310030F0000030F1000D
:103AA8009C3114249D312100EF010800F401F50137
:103AB8005D2D701C602D612D652D7208F40773084B
:103AC800F53D0130F235F30D890B662D0130F136E5
:103AD800F00C890B6B2D70087104031D742D752D66
:103AE8005D2D762D7508F1007408F0007B2D080017
:103AF800F401F40A2030700671040319842D852D11
:103B0800962D7008F73EF200FF30713DF30000304B
:103B18007302053003197202031C932D942D962D00
:103B2800F401962D7408F200F3017208F00073088E
:103B3800F1009E2D0800F7007108F5007008F400E8
:103B48007708F2007208F600AA2DAA2D76088600DA
:103B580001308700F60A7508F3007408F200F40AC9
:103B68000319F50A72088400730885000008C03F2D
:103B78008908031DC02DC12DAA2DC22D0800F800EB
:103B8800F401F5017008F200F3017208F6007308F9
:103B9800F700CE2D781CD12DD22DD62D7608F4071E
:103BA8007708F53D0130F635F70D890BD72D031051
:103BB800F80C7808031DE12DE22DCE2DE32D7508B4
:103BC800F1007408F000E82D0800F7007708F2000B
:103BD8007208F600F42D0130F2007208F707F42D90
:103BE80077088600013087000108031DFC2DFD2D94
:103BF800EF2DFE2D7608F2000130F300F209F309EB
:103C0800F20A0319F30A7708F4000130F500720884
:103C18007407F0007308753DF100122E08002000AB
:103C2800A600A401A5012C2E2308A000A1012008AC
:103C3800F3002108F4007B08A2002208F5009F3158
:103C480015279E3101302000A4070030A53D2C2EF9
:103C580024082607A00020088600013087000108F4
:103C6800A1002108A3002308031D3B2E3C2E182E7B
:103C78003D2E080022008C0112308E0037302100C2
:103C88008C000C308E00243023008E0007308C000E
:103C980024008C018E0125008C018E01373026000E
:103CA8008C003F308E003F3027008C003F308E0064
:103CB80013303C00A4000530A00019303D009400EA
:103CC800183095001430A50004303C00A10008000D
:103CD800F2009C318C249E31720824009100951FBB
:103CE800762E772E7A2E9E2E9E2E9E2E0F3015051E
:103CF800F100083071060319822E832E8E2E0F30A4
:103D08001505F1000B307106031D8B2E8C2E9E2E8F
:103D18008E2E8E2E1418912E922E8E2E932E9C312E
:103D28008C249E31240016089E2E9E2E9E2E9E2E9A
:103D38009E2E9E2E08007608BF3EF800FF30773D85
:103D4800F900003079021A3003197802031CAD2EED
:103D5800AF2E0130B02E0030FA00FB017A08FC00CB
:103D68007B08FD00C32E7708F1007608F0009C312F
:103D7800DF249E317108FD007008FC00C32E7C080A
:103D88007D040319C82EC92ED12E20307604F600E2
:103D980000307704F700D12ED12E0800F200F3018D
:103DA8009C318C249E310F3024001505F100083019
:103DB80071060319E02EE12EEA2E0F301505F100E9
:103DC8000B307106031DE92EEA2EED2E9615ED2E09
:103DD800ED2E141CF02EF12EED2EF22E1108F1000E
:103DE8007108F3009C318C249E317203031DFD2E53
:103DF800FE2E082F240096121616022F161A052FCB
:103E0800062F022F122F122F2400961616160C2F8B
:103E1800161A0F2F102F0C2F122F122F7308142F72
:103E2800080075080319192F1A2F202F7508031D6C
:103E38001E2F1F2F252F202F73089C3137249F31C9
:103E4800582F7508033E86008701160001040319E0
:103E58002E2F2F2F4D2F7508033E86008701403FD8
:103E6800F600413FF700750A86008701403FF800D9
:103E7800413FF9007908803AFA007708803A7A02D7
:103E8800031D482F7608780203184B2F4C2F582F04
:103E98004D2F750A860087010130810741310318CB
:103EA800810A582F582F582F080000307005F80045
:103EB80000307105F90080307205FA007F30730513
:103EC800FB007B087A0479047804031D6C2F6D2F9E
:103ED800752F0030F3000030F2000030F1000030A0
:103EE800F00000307405F80000307505F9008030E6
:103EF8007605FA007F307705FB007B087A047904A1
:103F08007804031D882F892F912F0030F700003087
:103F1800F6000030F5000030F40077087306031D42
:103F28009F2F76087206031D9F2F75087106031DC3
:103F38009F2F740870060319A22FA32FA52F031013
:103F4800A82F0314A82FA82F080000302100EA008A
:103F58000030E9000030E8000030E7009C319C2484
:103F68009F3100302100DC00A030DD009C31F824B6
:103F78009F319C31AF249F3102302100E60004308C
:103F8800E500BA30890BC62FE50BC62FE60BC62F06
:103F98000000CE2F933192239F3120003D0821004D
:103FA800EA0020003C082100E90020003B0821002D
:103FB800E80020003A082100E7005130DC00A0307A
:103FC800DD006A08E1006908E0006808DF006708AA
:103FD800DE009C31F8249F3103302100E6000830D0
:103FE800E5007730890BF62FE50BF62FE60BF62F59
:103FF800CE2FCE2F8031022854344D3450343134F2
:104008003134323478342034543465346D34703477
:1040180065347234613474347534723465342034E0
:10402800533465346E3473346F34723420344C3402
:1040380069346234203454346534733474340A3443
:1040480000340034003400340034003400340034C8
:1040580000340034003400340034003400340034B8
:1040680000340034003400340034003400340034A8
:104078000034003400340034003400340034003498
:1040880000340034003440341C340034003400342C
:1040980000340034003438341D3454343A34203475
:1040A800253433342E3432346634433400344934BE
:1040B8004E34463400344E3441344E34003469347E
:1040C8006E34663400346E3461346E3400346C34CB
:0440D8006634003416
:020000040001F9
:08000E00ECFFF3FFFFDFFFFF31
:00000001FF
